{
  "transactions": [
    {
      "hash": "0x3836d47be5908a9a9700c27016c91eec353eb4a3bf21d6d3fdb86c4a31e4520f",
      "transactionType": "CALL",
      "contractName": "OracleRouter",
      "contractAddress": "0x7c33a9c63211a8eeaf1e7f0b915593041b16f391",
      "function": "setOracleConfig(address,(address,address,uint32,uint96,bool))",
      "arguments": [
        "0x4200000000000000000000000000000000000006",
        "(0x4aDC67696bA383F43DD60A9e78F2C97Fbbfc7cb1, 0x94bfc0574FF48E92cE43d495376C477B1d0EEeC0, 1800, 3600, false)"
      ],
      "transaction": {
        "from": "0x6e0056fe681e087160bb40db0ae3419ee6c2ece4",
        "to": "0x7c33a9c63211a8eeaf1e7f0b915593041b16f391",
        "gas": "0x1ffc8",
        "value": "0x0",
        "input": "0xa058901000000000000000000000000042000000000000000000000000000000000000060000000000000000000000004adc67696ba383f43dd60a9e78f2c97fbbfc7cb100000000000000000000000094bfc0574ff48e92ce43d495376c477b1d0eeec000000000000000000000000000000000000000000000000000000000000007080000000000000000000000000000000000000000000000000000000000000e100000000000000000000000000000000000000000000000000000000000000000",
        "nonce": "0x7",
        "chainId": "0x14a34"
      },
      "additionalContracts": [],
      "isFixedGasLimit": false
    },
    {
      "hash": "0xff7e5158ba3bb54ac2636acd1445d69009813955a2cc57ee343995924495b422",
      "transactionType": "CALL",
      "contractName": "OracleRouter",
      "contractAddress": "0x7c33a9c63211a8eeaf1e7f0b915593041b16f391",
      "function": "setOracleConfig(address,(address,address,uint32,uint96,bool))",
      "arguments": [
        "0x036CbD53842c5426634e7929541eC2318f3dCF7e",
        "(0xd30e2101a97dcbAeBCBC04F14C3f624E67A35165, 0x0000000000000000000000000000000000000000, 0, 3600, false)"
      ],
      "transaction": {
        "from": "0x6e0056fe681e087160bb40db0ae3419ee6c2ece4",
        "to": "0x7c33a9c63211a8eeaf1e7f0b915593041b16f391",
        "gas": "0x21f78",
        "value": "0x0",
        "input": "0xa0589010000000000000000000000000036cbd53842c5426634e7929541ec2318f3dcf7e000000000000000000000000d30e2101a97dcbaebcbc04f14c3f624e67a35165000000000000000000000000000000000000000000000000000000000000000000000000000000000000000000000000000000000000000000000000000000000000000000000000000000000000000000000000000000000000000000000e100000000000000000000000000000000000000000000000000000000000000000",
        "nonce": "0x8",
        "chainId": "0x14a34"
      },
      "additionalContracts": [],
      "isFixedGasLimit": false
    },
    {
      "hash": "0x01bd6d46a4cf3ea4a420a8d770e9d63904b1eb0c52df97e32a42871153f7da7b",
      "transactionType": "CALL",
      "contractName": null,
      "contractAddress": "0x1b048c7323c7c7fe910a5f0e08b36b0c715e8947",
      "function": "createMarket((address,address,uint64,uint64,uint64,uint64,string,string))",
      "arguments": [
        "(0x4200000000000000000000000000000000000006, 0x036CbD53842c5426634e7929541eC2318f3dCF7e, 750000000000000000, 800000000000000000, 50000000000000000, 100000000000000000, ISM WETH-USDC, iWETH-USDC)"
      ],
      "transaction": {
        "from": "0x6e0056fe681e087160bb40db0ae3419ee6c2ece4",
        "to": "0x1b048c7323c7c7fe910a5f0e08b36b0c715e8947",
        "gas": "0x1b83d4",
        "value": "0x0",
        "input": "0x055d1ce900000000000000000000000000000000000000000000000000000000000000200000000000000000000000004200000000000000000000000000000000000006000000000000000000000000036cbd53842c5426634e7929541ec2318f3dcf7e0000000000000000000000000000000000000000000000000a688906bd8b00000000000000000000000000000000000000000000000000000b1a2bc2ec50000000000000000000000000000000000000000000000000000000b1a2bc2ec50000000000000000000000000000000000000000000000000000016345785d8a000000000000000000000000000000000000000000000000000000000000000001000000000000000000000000000000000000000000000000000000000000000140000000000000000000000000000000000000000000000000000000000000000d49534d20574554482d5553444300000000000000000000000000000000000000000000000000000000000000000000000000000000000000000000000000000a69574554482d5553444300000000000000000000000000000000000000000000",
        "nonce": "0x9",
        "chainId": "0x14a34"
      },
      "additionalContracts": [
        {
          "transactionType": "CREATE",
          "contractName": null,
          "address": "0x2a5b1e18afbb63ba63b16edc783814bdc728255a",
          "initCode": "0x3d602d80600a3d3981f3363d3d373d3d3d363d739741303c7571f9efe3953b804c08e289de5764935af43d82803e903d91602b57fd5bf3"
        },
        {
          "transactionType": "CREATE",
          "contractName": "PoolToken",
          "address": "0xd2de0164e3c38df0181a16f32557322a3f5f8305",
          "initCode": "0x60a06040523461035757610bbc803803806100198161035b565b9283398101906060818303126103575780516001600160a01b038116918282036103575760208101516001600160401b038111610357578461005c918301610380565b60408201519094906001600160401b0381116103575761007c9201610380565b83519092906001600160401b03811161026857600354600181811c9116801561034d575b602082101461024a57601f81116102ea575b50602094601f8211600114610287579481929394955f9261027c575b50508160011b915f199060031b1c1916176003555b82516001600160401b03811161026857600454600181811c9116801561025e575b602082101461024a57601f81116101e7575b506020601f821160011461018457819293945f92610179575b50508160011b915f199060031b1c1916176004555b1561016b576080526040516107ea90816103d2823960805181818161050601526107750152f35b62820f3560e61b5f5260045ffd5b015190505f8061012f565b601f1982169060045f52805f20915f5b8181106101cf575095836001959697106101b7575b505050811b01600455610144565b01515f1960f88460031b161c191690555f80806101a9565b9192602060018192868b015181550194019201610194565b60045f527f8a35acfbc15ff81a39ae7d344fd709f28e8600b4aa8c65c6b64bfe7fe36bd19b601f830160051c81019160208410610240575b601f0160051c01905b8181106102355750610116565b5f8155600101610228565b909150819061021f565b634e487b7160e01b5f52602260045260245ffd5b90607f1690610104565b634e487b7160e01b5f52604160045260245ffd5b015190505f806100ce565b601f1982169560035f52805f20915f5b8881106102d2575083600195969798106102ba575b505050811b016003556100e3565b01515f1960f88460031b161c191690555f80806102ac565b91926020600181928685015181550194019201610297565b60035f527fc2575a0e9e593c00f959f8c92f12db2869c3395a3b0502d05e2516446f71f85b601f830160051c81019160208410610343575b601f0160051c01905b81811061033857506100b2565b5f815560010161032b565b9091508190610322565b90607f16906100a0565b5f80fd5b6040519190601f01601f191682016001600160401b0381118382101761026857604052565b81601f82011215610357578051906001600160401b038211610268576103af601f8301601f191660200161035b565b928284526020838301011161035757815f9260208093018386015e830101529056fe6080806040526004361015610012575f80fd5b5f3560e01c90816306fdde03146105b757508063095ea7b31461053557806316f0115b146104f157806318160ddd146104d457806323b872dd146103f5578063313ce567146103da57806340c10f191461032e57806370a08231146102f757806395d89b41146101dc5780639dc29fac14610125578063a9059cbb146100f45763dd62ed3e146100a0575f80fd5b346100f05760403660031901126100f0576100b96106b0565b6100c16106c6565b6001600160a01b039182165f908152600160209081526040808320949093168252928352819020549051908152f35b5f80fd5b346100f05760403660031901126100f05761011a6101106106b0565b60243590336106dc565b602060405160018152f35b346100f05760403660031901126100f05761013e6106b0565b6024359061014a610773565b6001600160a01b031680156101c957805f525f60205260405f20548281106101b0576020835f947fddf252ad1be2c89b69c2b068fc378daa952ba7f163c4a11628f55a4df523b3ef938587528684520360408620558060025403600255604051908152a3005b9063391434e360e21b5f5260045260245260445260645ffd5b634b637e8f60e11b5f525f60045260245ffd5b346100f0575f3660031901126100f0576040515f6004548060011c906001811680156102ed575b6020831081146102d9578285529081156102bd5750600114610268575b50819003601f01601f191681019067ffffffffffffffff8211818310176102545761025082918260405282610686565b0390f35b634e487b7160e01b5f52604160045260245ffd5b905060045f527f8a35acfbc15ff81a39ae7d344fd709f28e8600b4aa8c65c6b64bfe7fe36bd19b5f905b8282106102a757506020915082010182610220565b6001816020925483858801015201910190610292565b90506020925060ff191682840152151560051b82010182610220565b634e487b7160e01b5f52602260045260245ffd5b91607f1691610203565b346100f05760203660031901126100f0576001600160a01b036103186106b0565b165f525f602052602060405f2054604051908152f35b346100f05760403660031901126100f0576103476106b0565b60243590610353610773565b6001600160a01b03169081156103c757600254908082018092116103b35760207fddf252ad1be2c89b69c2b068fc378daa952ba7f163c4a11628f55a4df523b3ef915f9360025584845283825260408420818154019055604051908152a3005b634e487b7160e01b5f52601160045260245ffd5b63ec442f0560e01b5f525f60045260245ffd5b346100f0575f3660031901126100f057602060405160128152f35b346100f05760603660031901126100f05761040e6106b0565b6104166106c6565b6001600160a01b0382165f818152600160209081526040808320338452909152902054909260443592915f198110610454575b5061011a93506106dc565b8381106104b95784156104a65733156104935761011a945f52600160205260405f2060018060a01b0333165f526020528360405f209103905584610449565b634a1406b160e11b5f525f60045260245ffd5b63e602df0560e01b5f525f60045260245ffd5b8390637dc7a0d960e11b5f523360045260245260445260645ffd5b346100f0575f3660031901126100f0576020600254604051908152f35b346100f0575f3660031901126100f0576040517f00000000000000000000000000000000000000000000000000000000000000006001600160a01b03168152602090f35b346100f05760403660031901126100f05761054e6106b0565b6024359033156104a6576001600160a01b031690811561049357335f52600160205260405f20825f526020528060405f20556040519081527f8c5be1e5ebec7d5bd14f71427d1e84f3dd0314c0f7b2291e5b200ac8c7c3b92560203392a3602060405160018152f35b346100f0575f3660031901126100f0575f6003548060011c9060018116801561067c575b6020831081146102d9578285529081156102bd57506001146106275750819003601f01601f191681019067ffffffffffffffff8211818310176102545761025082918260405282610686565b905060035f527fc2575a0e9e593c00f959f8c92f12db2869c3395a3b0502d05e2516446f71f85b5f905b82821061066657506020915082010182610220565b6001816020925483858801015201910190610651565b91607f16916105db565b602060409281835280519182918282860152018484015e5f828201840152601f01601f1916010190565b600435906001600160a01b03821682036100f057565b602435906001600160a01b03821682036100f057565b6001600160a01b03169081156101c9576001600160a01b03169182156103c757815f525f60205260405f205481811061075a57817fddf252ad1be2c89b69c2b068fc378daa952ba7f163c4a11628f55a4df523b3ef92602092855f525f84520360405f2055845f525f825260405f20818154019055604051908152a3565b8263391434e360e21b5f5260045260245260445260645ffd5b7f00000000000000000000000000000000000000000000000000000000000000006001600160a01b031633036107a557565b634b60273560e01b5f5260045ffdfea26469706673582212204ae05e8be0a9619c74ce8e8fad51a6e5faeec852ae29246faf5e4fb2705760ac64736f6c634300081d00330000000000000000000000002a5b1e18afbb63ba63b16edc783814bdc728255a000000000000000000000000000000000000000000000000000000000000006000000000000000000000000000000000000000000000000000000000000000a0000000000000000000000000000000000000000000000000000000000000000d49534d20574554482d5553444300000000000000000000000000000000000000000000000000000000000000000000000000000000000000000000000000000a69574554482d5553444300000000000000000000000000000000000000000000"
        }
      ],
      "isFixedGasLimit": false
    }
  ],
  "receipts": [
    {
      "status": "0x1",
      "cumulativeGasUsed": "0x341a7d",
      "logs": [
        {
          "address": "0x7c33a9c63211a8eeaf1e7f0b915593041b16f391",
          "topics": [
            "0x71ff074140297c67e7be7f13c16ad56c7b665a5bba5315cd50f21b96c0c7e667",
            "0x0000000000000000000000004200000000000000000000000000000000000006"
          ],
          "data": "0x0000000000000000000000004adc67696ba383f43dd60a9e78f2c97fbbfc7cb100000000000000000000000094bfc0574ff48e92ce43d495376c477b1d0eeec00000000000000000000000000000000000000000000000000000000000000708",
          "blockHash": "0x0000000000000000000000000000000000000000000000000000000000000000",
          "blockNumber": "0x23b9b03",
          "blockTimestamp": "0x698a94e6",
          "transactionHash": "0x3836d47be5908a9a9700c27016c91eec353eb4a3bf21d6d3fdb86c4a31e4520f",
          "transactionIndex": "0x10",
          "logIndex": "0x65",
          "removed": false
        }
      ],
      "logsBloom": "0x00000000000000000000000000000000000000000000000000000000000000000000000000000000000000000000000000000000000000000020008000000000000000000000000040000000000000000000000000000000000100000000000000000000000000000000000000000000000010000000000000000000000000000000000000000000000000000000000000000000000000000000000000000000000000000000000000000000000000000000000000100000000000000000004000000000000004000000000000000000000000000000000000000000000000000000002000000000000000000000000000000000000000000000000000000000",
      "type": "0x2",
      "transactionHash": "0x3836d47be5908a9a9700c27016c91eec353eb4a3bf21d6d3fdb86c4a31e4520f",
      "transactionIndex": "0x10",
      "blockHash": "0x0000000000000000000000000000000000000000000000000000000000000000",
      "blockNumber": "0x23b9b03",
      "gasUsed": "0x17286",
      "effectiveGasPrice": "0x124f80",
      "blobGasUsed": "0x9d38",
      "from": "0x6e0056fe681e087160bb40db0ae3419ee6c2ece4",
      "to": "0x7c33a9c63211a8eeaf1e7f0b915593041b16f391",
      "contractAddress": null,
      "daFootprintGasScalar": "0x138",
      "l1BaseFeeScalar": "0x44d",
      "l1BlobBaseFee": "0x65da007",
      "l1BlobBaseFeeScalar": "0xa118b",
      "l1Fee": "0x2101c9e0f",
      "l1GasPrice": "0x3d58d668",
      "l1GasUsed": "0x81b"
    },
    {
      "status": "0x1",
      "cumulativeGasUsed": "0xb7a587",
      "logs": [
        {
          "address": "0x7c33a9c63211a8eeaf1e7f0b915593041b16f391",
          "topics": [
            "0x71ff074140297c67e7be7f13c16ad56c7b665a5bba5315cd50f21b96c0c7e667",
            "0x000000000000000000000000036cbd53842c5426634e7929541ec2318f3dcf7e"
          ],
          "data": "0x000000000000000000000000d30e2101a97dcbaebcbc04f14c3f624e67a3516500000000000000000000000000000000000000000000000000000000000000000000000000000000000000000000000000000000000000000000000000000000",
          "blockHash": "0x0000000000000000000000000000000000000000000000000000000000000000",
          "blockNumber": "0x23b9b04",
          "blockTimestamp": "0x698a94e8",
          "transactionHash": "0xff7e5158ba3bb54ac2636acd1445d69009813955a2cc57ee343995924495b422",
          "transactionIndex": "0x15",
          "logIndex": "0xa7",
          "removed": false
        }
      ],
      "logsBloom": "0x00000000000000000000000000000000000000000000000000000000000000000000000000000000000000000000000000000000000000000000008000000000000000000000000040000000000000000000000000000000000100000000000000000000000000000000000000000000000000000000000000000000000000000000000040000000000000000000000000000000000000000000000000000000000000000000000000000000000000000000000000100000100000000000004000000000000000000000000000000000000000000000000000000000000000000000002000000000000000000040000000000000000000000000000000000000",
      "type": "0x2",
      "transactionHash": "0xff7e5158ba3bb54ac2636acd1445d69009813955a2cc57ee343995924495b422",
      "transactionIndex": "0x15",
      "blockHash": "0x0000000000000000000000000000000000000000000000000000000000000000",
      "blockNumber": "0x23b9b04",
      "gasUsed": "0x1739b",
      "effectiveGasPrice": "0x124f80",
      "blobGasUsed": "0x8880",
      "from": "0x6e0056fe681e087160bb40db0ae3419ee6c2ece4",
      "to": "0x7c33a9c63211a8eeaf1e7f0b915593041b16f391",
      "contractAddress": null,
      "daFootprintGasScalar": "0x138",
      "l1BaseFeeScalar": "0x44d",
      "l1BlobBaseFee": "0x5a07430",
      "l1BlobBaseFeeScalar": "0xa118b",
      "l1Fee": "0x1d7baf792",
      "l1GasPrice": "0x39053a23",
      "l1GasUsed": "0x702"
    },
    {
      "status": "0x1",
      "cumulativeGasUsed": "0x4de823",
      "logs": [
        {
          "address": "0x2a5b1e18afbb63ba63b16edc783814bdc728255a",
          "topics": [
            "0x3514319b7a526ad5f1f42edf0c1df25fa0ea2ae054779987fbe636f164515e2f",
            "0x0000000000000000000000004200000000000000000000000000000000000006",
            "0x000000000000000000000000036cbd53842c5426634e7929541ec2318f3dcf7e"
          ],
          "data": "0x0000000000000000000000009541dc3ded3e4733743923255735948c0b6e1d510000000000000000000000007c33a9c63211a8eeaf1e7f0b915593041b16f391",
          "blockHash": "0x7e3190b4777ad3f8484267a019c6b6d5ca682daef511f566dc070b2e566f6fba",
          "blockNumber": "0x23b9b05",
          "blockTimestamp": "0x698a94ea",
          "transactionHash": "0x01bd6d46a4cf3ea4a420a8d770e9d63904b1eb0c52df97e32a42871153f7da7b",
          "transactionIndex": "0xc",
          "logIndex": "0x2d",
          "removed": false
        },
        {
          "address": "0x4a5bae4a21eb545cf6cadc2d3682520b574103dd",
          "topics": [
            "0xb313430391c48e1ec63b9cf14dcd61b818b9ae83982f1d4e0e0ad01147af5cd0",
            "0x0000000000000000000000002a5b1e18afbb63ba63b16edc783814bdc728255a",
            "0x0000000000000000000000004200000000000000000000000000000000000006",
            "0x000000000000000000000000036cbd53842c5426634e7929541ec2318f3dcf7e"
          ],
          "data": "0x",
          "blockHash": "0x7e3190b4777ad3f8484267a019c6b6d5ca682daef511f566dc070b2e566f6fba",
          "blockNumber": "0x23b9b05",
          "blockTimestamp": "0x698a94ea",
          "transactionHash": "0x01bd6d46a4cf3ea4a420a8d770e9d63904b1eb0c52df97e32a42871153f7da7b",
          "transactionIndex": "0xc",
          "logIndex": "0x2e",
          "removed": false
        },
        {
          "address": "0x1b048c7323c7c7fe910a5f0e08b36b0c715e8947",
          "topics": [
            "0x5509f6235f0d08c563aedf1b655226cad4a613794902c476ad7a08accb43ebc5",
            "0x0000000000000000000000002a5b1e18afbb63ba63b16edc783814bdc728255a",
            "0x0000000000000000000000004200000000000000000000000000000000000006",
            "0x000000000000000000000000036cbd53842c5426634e7929541ec2318f3dcf7e"
          ],
          "data": "0x000000000000000000000000d2de0164e3c38df0181a16f32557322a3f5f8305",
          "blockHash": "0x7e3190b4777ad3f8484267a019c6b6d5ca682daef511f566dc070b2e566f6fba",
          "blockNumber": "0x23b9b05",
          "blockTimestamp": "0x698a94ea",
          "transactionHash": "0x01bd6d46a4cf3ea4a420a8d770e9d63904b1eb0c52df97e32a42871153f7da7b",
          "transactionIndex": "0xc",
          "logIndex": "0x2f",
          "removed": false
        }
      ],
      "logsBloom": "0x02000000000000000000000000000000000000000000000000000000000000000040000000000000000200000000000000000000000008000020000000400000004000002000000000000000000000000000000000200000000000000000000000000000000000000000000000000000000010000000000000000000000000000000000040000000000000000000010000000000000000000000000008000000000000000000000000400200008100000000000000000000100000004000000000000008000004000000000000000000001000000002000004000000000000000000000000000000000000000040000000001000000000000000002000000000",
      "type": "0x2",
      "transactionHash": "0x01bd6d46a4cf3ea4a420a8d770e9d63904b1eb0c52df97e32a42871153f7da7b",
      "transactionIndex": "0xc",
      "blockHash": "0x7e3190b4777ad3f8484267a019c6b6d5ca682daef511f566dc070b2e566f6fba",
      "blockNumber": "0x23b9b05",
      "gasUsed": "0x13eb9c",
      "effectiveGasPrice": "0x124f80",
      "blobGasUsed": "0xd410",
      "from": "0x6e0056fe681e087160bb40db0ae3419ee6c2ece4",
      "to": "0x1b048c7323c7c7fe910a5f0e08b36b0c715e8947",
      "contractAddress": null,
      "daFootprintGasScalar": "0x138",
      "l1BaseFeeScalar": "0x44d",
      "l1BlobBaseFee": "0x5a07430",
      "l1BlobBaseFeeScalar": "0xa118b",
      "l1Fee": "0x33913be34",
      "l1GasPrice": "0x39053a23",
      "l1GasUsed": "0xaee"
    }
  ],
  "libraries": [],
  "pending": [],
  "returns": {},
  "timestamp": 1770689770997,
  "chain": 84532,
  "commit": "117afd3"
}