{
  "transactions": [
    {
      "hash": "0xaa71fcc29fc7538af89d3ddb401e161d28e5066efdeb46361d544cb9064a15cd",
      "transactionType": "CALL",
      "contractName": "OracleRouter",
      "contractAddress": "0x2d3083b20fca2341e28283ac47f9e585a5f0c741",
      "function": "setOracleConfig(address,(address,address,uint32,uint96,bool))",
      "arguments": [
        "0x036CbD53842c5426634e7929541eC2318f3dCF7e",
        "(0xd30e2101a97dcbAeBCBC04F14C3f624E67A35165, 0x94bfc0574FF48E92cE43d495376C477B1d0EEeC0, 1800, 3600, true)"
      ],
      "transaction": {
        "from": "0x6e0056fe681e087160bb40db0ae3419ee6c2ece4",
        "to": "0x2d3083b20fca2341e28283ac47f9e585a5f0c741",
        "gas": "0xdd1d",
        "value": "0x0",
        "input": "0xa0589010000000000000000000000000036cbd53842c5426634e7929541ec2318f3dcf7e000000000000000000000000d30e2101a97dcbaebcbc04f14c3f624e67a3516500000000000000000000000094bfc0574ff48e92ce43d495376c477b1d0eeec000000000000000000000000000000000000000000000000000000000000007080000000000000000000000000000000000000000000000000000000000000e100000000000000000000000000000000000000000000000000000000000000001",
        "nonce": "0x42",
        "chainId": "0x14a34"
      },
      "additionalContracts": [],
      "isFixedGasLimit": false
    }
  ],
  "receipts": [
    {
      "status": "0x1",
      "cumulativeGasUsed": "0x1d5fbe",
      "logs": [
        {
          "address": "0x2d3083b20fca2341e28283ac47f9e585a5f0c741",
          "topics": [
            "0x71ff074140297c67e7be7f13c16ad56c7b665a5bba5315cd50f21b96c0c7e667",
            "0x000000000000000000000000036cbd53842c5426634e7929541ec2318f3dcf7e"
          ],
          "data": "0x000000000000000000000000d30e2101a97dcbaebcbc04f14c3f624e67a3516500000000000000000000000094bfc0574ff48e92ce43d495376c477b1d0eeec00000000000000000000000000000000000000000000000000000000000000708",
          "blockHash": "0x0000000000000000000000000000000000000000000000000000000000000000",
          "blockNumber": "0x23ece50",
          "blockTimestamp": "0x6990fb80",
          "transactionHash": "0xaa71fcc29fc7538af89d3ddb401e161d28e5066efdeb46361d544cb9064a15cd",
          "transactionIndex": "0x7",
          "logIndex": "0x71",
          "removed": false
        }
      ],
      "logsBloom": "0x00000000000000000000000000000000000000000000000000000000000000000000000000000000000000000000000000000000000000000000000000000000000000000000000040000000000004000000000000000000000100000000000000000000000000000000000000000000000000000000000000000000000000000000000040000000000000000000000000000000000000000000000000000000000000000000000000000000000000000000000000100000900000000004000000000000000000000000000000000000000000000000000000000000000000000000000000000000000000000040000000000000000000000000000000000000",
      "type": "0x2",
      "transactionHash": "0xaa71fcc29fc7538af89d3ddb401e161d28e5066efdeb46361d544cb9064a15cd",
      "transactionIndex": "0x7",
      "blockHash": "0x0000000000000000000000000000000000000000000000000000000000000000",
      "blockNumber": "0x23ece50",
      "gasUsed": "0xa016",
      "effectiveGasPrice": "0x269fb2",
      "blobGasUsed": "0x4d1a",
      "from": "0x6e0056fe681e087160bb40db0ae3419ee6c2ece4",
      "to": "0x2d3083b20fca2341e28283ac47f9e585a5f0c741",
      "contractAddress": null,
      "daFootprintGasScalar": "0x8b",
      "l1BaseFeeScalar": "0x44d",
      "l1BlobBaseFee": "0xc6cd5fa",
      "l1BlobBaseFeeScalar": "0xa118b",
      "l1Fee": "0x5677d317a",
      "l1GasPrice": "0x13ff1e4b9",
      "l1GasUsed": "0x8e4"
    }
  ],
  "libraries": [],
  "pending": [],
  "returns": {},
  "timestamp": 1771109246476,
  "chain": 84532,
  "commit": "c746acf"
}