{
  "transactions": [
    {
      "hash": "0xb5ae5d9fad92dfe191c65a340bc85b67dde95a87140e2c5e33c2c54def2b44ae",
      "transactionType": "CALL",
      "contractName": "OracleRouter",
      "contractAddress": "0x2d3083b20fca2341e28283ac47f9e585a5f0c741",
      "function": "setOracleConfig(address,(address,address,uint32,uint96,bool))",
      "arguments": [
        "0x036CbD53842c5426634e7929541eC2318f3dCF7e",
        "(0xd30e2101a97dcbAeBCBC04F14C3f624E67A35165, 0x0000000000000000000000000000000000000000, 0, 3600, false)"
      ],
      "transaction": {
        "from": "0x6e0056fe681e087160bb40db0ae3419ee6c2ece4",
        "to": "0x2d3083b20fca2341e28283ac47f9e585a5f0c741",
        "gas": "0xdd61",
        "value": "0x0",
        "input": "0xa0589010000000000000000000000000036cbd53842c5426634e7929541ec2318f3dcf7e000000000000000000000000d30e2101a97dcbaebcbc04f14c3f624e67a35165000000000000000000000000000000000000000000000000000000000000000000000000000000000000000000000000000000000000000000000000000000000000000000000000000000000000000000000000000000000000000000000e100000000000000000000000000000000000000000000000000000000000000000",
        "nonce": "0x45",
        "chainId": "0x14a34"
      },
      "additionalContracts": [],
      "isFixedGasLimit": false
    }
  ],
  "receipts": [
    {
      "status": "0x1",
      "cumulativeGasUsed": "0x2eb4c4",
      "logs": [
        {
          "address": "0x2d3083b20fca2341e28283ac47f9e585a5f0c741",
          "topics": [
            "0x71ff074140297c67e7be7f13c16ad56c7b665a5bba5315cd50f21b96c0c7e667",
            "0x000000000000000000000000036cbd53842c5426634e7929541ec2318f3dcf7e"
          ],
          "data": "0x000000000000000000000000d30e2101a97dcbaebcbc04f14c3f624e67a3516500000000000000000000000000000000000000000000000000000000000000000000000000000000000000000000000000000000000000000000000000000000",
          "blockHash": "0x0000000000000000000000000000000000000000000000000000000000000000",
          "blockNumber": "0x23ed05a",
          "blockTimestamp": "0x6990ff94",
          "transactionHash": "0xb5ae5d9fad92dfe191c65a340bc85b67dde95a87140e2c5e33c2c54def2b44ae",
          "transactionIndex": "0xc",
          "logIndex": "0x53",
          "removed": false
        }
      ],
      "logsBloom": "0x00000000000000000000000000000000000000000000000000000000000000000000000000000000000000000000000000000000000000000000000000000000000000000000000040000000000004000000000000000000000100000000000000000000000000000000000000000000000000000000000000000000000000000000000040000000000000000000000000000000000000000000000000000000000000000000000000000000000000000000000000100000900000000004000000000000000000000000000000000000000000000000000000000000000000000000000000000000000000000040000000000000000000000000000000000000",
      "type": "0x2",
      "transactionHash": "0xb5ae5d9fad92dfe191c65a340bc85b67dde95a87140e2c5e33c2c54def2b44ae",
      "transactionIndex": "0xc",
      "blockHash": "0x0000000000000000000000000000000000000000000000000000000000000000",
      "blockNumber": "0x23ed05a",
      "gasUsed": "0xa047",
      "effectiveGasPrice": "0x2dc6c0",
      "blobGasUsed": "0x3c45",
      "from": "0x6e0056fe681e087160bb40db0ae3419ee6c2ece4",
      "to": "0x2d3083b20fca2341e28283ac47f9e585a5f0c741",
      "contractAddress": null,
      "daFootprintGasScalar": "0x8b",
      "l1BaseFeeScalar": "0x44d",
      "l1BlobBaseFee": "0xfaab66e",
      "l1BlobBaseFeeScalar": "0xa118b",
      "l1Fee": "0x82d465f2a",
      "l1GasPrice": "0x1218b4ec8",
      "l1GasUsed": "0x6f5"
    }
  ],
  "libraries": [],
  "pending": [],
  "returns": {},
  "timestamp": 1771110291107,
  "chain": 84532,
  "commit": "c746acf"
}