{
  "transactions": [
    {
      "hash": "0xd8a90c370aa2ffca3f7dffdcc3612436445ae92c00970862017645ed7bd360f6",
      "transactionType": "CALL",
      "contractName": null,
      "contractAddress": "0x403276c627737cab896bbddefed4538d9a6ae5c0",
      "function": "createMarket((address,address,uint64,uint64,uint64,uint64,string,string))",
      "arguments": [
        "(0x036CbD53842c5426634e7929541eC2318f3dCF7e, 0x4200000000000000000000000000000000000006, 750000000000000000, 800000000000000000, 50000000000000000, 100000000000000000, ISM USDC-WETH, iUSDC-WETH)"
      ],
      "transaction": {
        "from": "0x6e0056fe681e087160bb40db0ae3419ee6c2ece4",
        "to": "0x403276c627737cab896bbddefed4538d9a6ae5c0",
        "gas": "0x1c7b59",
        "value": "0x0",
        "input": "0x055d1ce90000000000000000000000000000000000000000000000000000000000000020000000000000000000000000036cbd53842c5426634e7929541ec2318f3dcf7e00000000000000000000000042000000000000000000000000000000000000060000000000000000000000000000000000000000000000000a688906bd8b00000000000000000000000000000000000000000000000000000b1a2bc2ec50000000000000000000000000000000000000000000000000000000b1a2bc2ec50000000000000000000000000000000000000000000000000000016345785d8a000000000000000000000000000000000000000000000000000000000000000001000000000000000000000000000000000000000000000000000000000000000140000000000000000000000000000000000000000000000000000000000000000d49534d20555344432d5745544800000000000000000000000000000000000000000000000000000000000000000000000000000000000000000000000000000a69555344432d5745544800000000000000000000000000000000000000000000",
        "nonce": "0xc2",
        "chainId": "0x14a34"
      },
      "additionalContracts": [
        {
          "transactionType": "CREATE",
          "contractName": null,
          "address": "0xcacce60e4d87b077b2fe1e63c2e8b0dc234dc905",
          "initCode": "0x3d602d80600a3d3981f3363d3d373d3d3d363d7372b10a8f2570776c28788652d8b575bd7236796c5af43d82803e903d91602b57fd5bf3"
        },
        {
          "transactionType": "CREATE",
          "contractName": "PoolToken",
          "address": "0x9158e648d762c0ae79441d04070e0e7ef506663d",
          "initCode": "0x60a06040523461035757610bbc803803806100198161035b565b9283398101906060818303126103575780516001600160a01b038116918282036103575760208101516001600160401b038111610357578461005c918301610380565b60408201519094906001600160401b0381116103575761007c9201610380565b83519092906001600160401b03811161026857600354600181811c9116801561034d575b602082101461024a57601f81116102ea575b50602094601f8211600114610287579481929394955f9261027c575b50508160011b915f199060031b1c1916176003555b82516001600160401b03811161026857600454600181811c9116801561025e575b602082101461024a57601f81116101e7575b506020601f821160011461018457819293945f92610179575b50508160011b915f199060031b1c1916176004555b1561016b576080526040516107ea90816103d2823960805181818161050601526107750152f35b62820f3560e61b5f5260045ffd5b015190505f8061012f565b601f1982169060045f52805f20915f5b8181106101cf575095836001959697106101b7575b505050811b01600455610144565b01515f1960f88460031b161c191690555f80806101a9565b9192602060018192868b015181550194019201610194565b60045f527f8a35acfbc15ff81a39ae7d344fd709f28e8600b4aa8c65c6b64bfe7fe36bd19b601f830160051c81019160208410610240575b601f0160051c01905b8181106102355750610116565b5f8155600101610228565b909150819061021f565b634e487b7160e01b5f52602260045260245ffd5b90607f1690610104565b634e487b7160e01b5f52604160045260245ffd5b015190505f806100ce565b601f1982169560035f52805f20915f5b8881106102d2575083600195969798106102ba575b505050811b016003556100e3565b01515f1960f88460031b161c191690555f80806102ac565b91926020600181928685015181550194019201610297565b60035f527fc2575a0e9e593c00f959f8c92f12db2869c3395a3b0502d05e2516446f71f85b601f830160051c81019160208410610343575b601f0160051c01905b81811061033857506100b2565b5f815560010161032b565b9091508190610322565b90607f16906100a0565b5f80fd5b6040519190601f01601f191682016001600160401b0381118382101761026857604052565b81601f82011215610357578051906001600160401b038211610268576103af601f8301601f191660200161035b565b928284526020838301011161035757815f9260208093018386015e830101529056fe6080806040526004361015610012575f80fd5b5f3560e01c90816306fdde03146105b757508063095ea7b31461053557806316f0115b146104f157806318160ddd146104d457806323b872dd146103f5578063313ce567146103da57806340c10f191461032e57806370a08231146102f757806395d89b41146101dc5780639dc29fac14610125578063a9059cbb146100f45763dd62ed3e146100a0575f80fd5b346100f05760403660031901126100f0576100b96106b0565b6100c16106c6565b6001600160a01b039182165f908152600160209081526040808320949093168252928352819020549051908152f35b5f80fd5b346100f05760403660031901126100f05761011a6101106106b0565b60243590336106dc565b602060405160018152f35b346100f05760403660031901126100f05761013e6106b0565b6024359061014a610773565b6001600160a01b031680156101c957805f525f60205260405f20548281106101b0576020835f947fddf252ad1be2c89b69c2b068fc378daa952ba7f163c4a11628f55a4df523b3ef938587528684520360408620558060025403600255604051908152a3005b9063391434e360e21b5f5260045260245260445260645ffd5b634b637e8f60e11b5f525f60045260245ffd5b346100f0575f3660031901126100f0576040515f6004548060011c906001811680156102ed575b6020831081146102d9578285529081156102bd5750600114610268575b50819003601f01601f191681019067ffffffffffffffff8211818310176102545761025082918260405282610686565b0390f35b634e487b7160e01b5f52604160045260245ffd5b905060045f527f8a35acfbc15ff81a39ae7d344fd709f28e8600b4aa8c65c6b64bfe7fe36bd19b5f905b8282106102a757506020915082010182610220565b6001816020925483858801015201910190610292565b90506020925060ff191682840152151560051b82010182610220565b634e487b7160e01b5f52602260045260245ffd5b91607f1691610203565b346100f05760203660031901126100f0576001600160a01b036103186106b0565b165f525f602052602060405f2054604051908152f35b346100f05760403660031901126100f0576103476106b0565b60243590610353610773565b6001600160a01b03169081156103c757600254908082018092116103b35760207fddf252ad1be2c89b69c2b068fc378daa952ba7f163c4a11628f55a4df523b3ef915f9360025584845283825260408420818154019055604051908152a3005b634e487b7160e01b5f52601160045260245ffd5b63ec442f0560e01b5f525f60045260245ffd5b346100f0575f3660031901126100f057602060405160128152f35b346100f05760603660031901126100f05761040e6106b0565b6104166106c6565b6001600160a01b0382165f818152600160209081526040808320338452909152902054909260443592915f198110610454575b5061011a93506106dc565b8381106104b95784156104a65733156104935761011a945f52600160205260405f2060018060a01b0333165f526020528360405f209103905584610449565b634a1406b160e11b5f525f60045260245ffd5b63e602df0560e01b5f525f60045260245ffd5b8390637dc7a0d960e11b5f523360045260245260445260645ffd5b346100f0575f3660031901126100f0576020600254604051908152f35b346100f0575f3660031901126100f0576040517f00000000000000000000000000000000000000000000000000000000000000006001600160a01b03168152602090f35b346100f05760403660031901126100f05761054e6106b0565b6024359033156104a6576001600160a01b031690811561049357335f52600160205260405f20825f526020528060405f20556040519081527f8c5be1e5ebec7d5bd14f71427d1e84f3dd0314c0f7b2291e5b200ac8c7c3b92560203392a3602060405160018152f35b346100f0575f3660031901126100f0575f6003548060011c9060018116801561067c575b6020831081146102d9578285529081156102bd57506001146106275750819003601f01601f191681019067ffffffffffffffff8211818310176102545761025082918260405282610686565b905060035f527fc2575a0e9e593c00f959f8c92f12db2869c3395a3b0502d05e2516446f71f85b5f905b82821061066657506020915082010182610220565b6001816020925483858801015201910190610651565b91607f16916105db565b602060409281835280519182918282860152018484015e5f828201840152601f01601f1916010190565b600435906001600160a01b03821682036100f057565b602435906001600160a01b03821682036100f057565b6001600160a01b03169081156101c9576001600160a01b03169182156103c757815f525f60205260405f205481811061075a57817fddf252ad1be2c89b69c2b068fc378daa952ba7f163c4a11628f55a4df523b3ef92602092855f525f84520360405f2055845f525f825260405f20818154019055604051908152a3565b8263391434e360e21b5f5260045260245260445260645ffd5b7f00000000000000000000000000000000000000000000000000000000000000006001600160a01b031633036107a557565b634b60273560e01b5f5260045ffdfea26469706673582212204ae05e8be0a9619c74ce8e8fad51a6e5faeec852ae29246faf5e4fb2705760ac64736f6c634300081d0033000000000000000000000000cacce60e4d87b077b2fe1e63c2e8b0dc234dc905000000000000000000000000000000000000000000000000000000000000006000000000000000000000000000000000000000000000000000000000000000a0000000000000000000000000000000000000000000000000000000000000000d49534d20555344432d5745544800000000000000000000000000000000000000000000000000000000000000000000000000000000000000000000000000000a69555344432d5745544800000000000000000000000000000000000000000000"
        }
      ],
      "isFixedGasLimit": false
    }
  ],
  "receipts": [
    {
      "status": "0x1",
      "cumulativeGasUsed": "0x22c3b3",
      "logs": [
        {
          "address": "0xcacce60e4d87b077b2fe1e63c2e8b0dc234dc905",
          "topics": [
            "0x3514319b7a526ad5f1f42edf0c1df25fa0ea2ae054779987fbe636f164515e2f",
            "0x000000000000000000000000036cbd53842c5426634e7929541ec2318f3dcf7e",
            "0x0000000000000000000000004200000000000000000000000000000000000006"
          ],
          "data": "0x000000000000000000000000414219e850f9cd7352a56e763dddde2900128ac4000000000000000000000000d8f530eb3b624c6d4e89d504e48f8b0d00bf0a97",
          "blockHash": "0x0468182b3da98fe6afd23c9c5985936aefd4475b14a7ad0d422048798ff096ac",
          "blockNumber": "0x240362c",
          "blockTimestamp": "0x6993cb38",
          "transactionHash": "0xd8a90c370aa2ffca3f7dffdcc3612436445ae92c00970862017645ed7bd360f6",
          "transactionIndex": "0xf",
          "logIndex": "0xf",
          "removed": false
        },
        {
          "address": "0xb7fc139046a2d976060e2db969b6dd63aceea3f4",
          "topics": [
            "0xb313430391c48e1ec63b9cf14dcd61b818b9ae83982f1d4e0e0ad01147af5cd0",
            "0x000000000000000000000000cacce60e4d87b077b2fe1e63c2e8b0dc234dc905",
            "0x000000000000000000000000036cbd53842c5426634e7929541ec2318f3dcf7e",
            "0x0000000000000000000000004200000000000000000000000000000000000006"
          ],
          "data": "0x",
          "blockHash": "0x0468182b3da98fe6afd23c9c5985936aefd4475b14a7ad0d422048798ff096ac",
          "blockNumber": "0x240362c",
          "blockTimestamp": "0x6993cb38",
          "transactionHash": "0xd8a90c370aa2ffca3f7dffdcc3612436445ae92c00970862017645ed7bd360f6",
          "transactionIndex": "0xf",
          "logIndex": "0x10",
          "removed": false
        },
        {
          "address": "0x403276c627737cab896bbddefed4538d9a6ae5c0",
          "topics": [
            "0x5509f6235f0d08c563aedf1b655226cad4a613794902c476ad7a08accb43ebc5",
            "0x000000000000000000000000cacce60e4d87b077b2fe1e63c2e8b0dc234dc905",
            "0x000000000000000000000000036cbd53842c5426634e7929541ec2318f3dcf7e",
            "0x0000000000000000000000004200000000000000000000000000000000000006"
          ],
          "data": "0x0000000000000000000000009158e648d762c0ae79441d04070e0e7ef506663d",
          "blockHash": "0x0468182b3da98fe6afd23c9c5985936aefd4475b14a7ad0d422048798ff096ac",
          "blockNumber": "0x240362c",
          "blockTimestamp": "0x6993cb38",
          "transactionHash": "0xd8a90c370aa2ffca3f7dffdcc3612436445ae92c00970862017645ed7bd360f6",
          "transactionIndex": "0xf",
          "logIndex": "0x11",
          "removed": false
        }
      ],
      "logsBloom": "0x02000000000000000000000000000000000000000000000000000000000000000000000000000000000000000000000000000000000000000020000000400000000080000000000000000200040000000000000000000000000040000000000000000000000000000000000000000000000010000000000000000000000000000000000040200000008000000000010000000000000000800000000008000000001000000000000000400000008000000000004000000000100000004000000000000000000004000400000000000000001400000000000004000000000000000000000000000000000000000040000000000000000000000000100000000000",
      "type": "0x2",
      "transactionHash": "0xd8a90c370aa2ffca3f7dffdcc3612436445ae92c00970862017645ed7bd360f6",
      "transactionIndex": "0xf",
      "blockHash": "0x0468182b3da98fe6afd23c9c5985936aefd4475b14a7ad0d422048798ff096ac",
      "blockNumber": "0x240362c",
      "gasUsed": "0x13798a",
      "effectiveGasPrice": "0x2dc6c0",
      "blobGasUsed": "0x5e7a",
      "from": "0x6e0056fe681e087160bb40db0ae3419ee6c2ece4",
      "to": "0x403276c627737cab896bbddefed4538d9a6ae5c0",
      "contractAddress": null,
      "daFootprintGasScalar": "0x8b",
      "l1BaseFeeScalar": "0x44d",
      "l1BlobBaseFee": "0xf8b8d61",
      "l1BlobBaseFeeScalar": "0xa118b",
      "l1Fee": "0x9de32ac45",
      "l1GasPrice": "0xed9da56d",
      "l1GasUsed": "0xaee"
    }
  ],
  "libraries": [],
  "pending": [],
  "returns": {},
  "timestamp": 1771293497267,
  "chain": 84532,
  "commit": "32d24c6"
}