{
  "transactions": [
    {
      "hash": "0x44a16f7bd1971d8f5e93c80836bdbda4af46c157fd673313456fca9ce4e61322",
      "transactionType": "CALL",
      "contractName": "OracleRouter",
      "contractAddress": "0xd8f530eb3b624c6d4e89d504e48f8b0d00bf0a97",
      "function": "setOracleConfig(address,(address,address,uint32,uint96,bool))",
      "arguments": [
        "0x4200000000000000000000000000000000000006",
        "(0x4aDC67696bA383F43DD60A9e78F2C97Fbbfc7cb1, 0x94bfc0574FF48E92cE43d495376C477B1d0EEeC0, 1800, 86400, false)"
      ],
      "transaction": {
        "from": "0x6e0056fe681e087160bb40db0ae3419ee6c2ece4",
        "to": "0xd8f530eb3b624c6d4e89d504e48f8b0d00bf0a97",
        "gas": "0xccd7",
        "value": "0x0",
        "input": "0xa058901000000000000000000000000042000000000000000000000000000000000000060000000000000000000000004adc67696ba383f43dd60a9e78f2c97fbbfc7cb100000000000000000000000094bfc0574ff48e92ce43d495376c477b1d0eeec0000000000000000000000000000000000000000000000000000000000000070800000000000000000000000000000000000000000000000000000000000151800000000000000000000000000000000000000000000000000000000000000000",
        "nonce": "0x8b",
        "chainId": "0x14a34"
      },
      "additionalContracts": [],
      "isFixedGasLimit": false
    }
  ],
  "receipts": [
    {
      "status": "0x1",
      "cumulativeGasUsed": "0xa2d27",
      "logs": [
        {
          "address": "0xd8f530eb3b624c6d4e89d504e48f8b0d00bf0a97",
          "topics": [
            "0x71ff074140297c67e7be7f13c16ad56c7b665a5bba5315cd50f21b96c0c7e667",
            "0x0000000000000000000000004200000000000000000000000000000000000006"
          ],
          "data": "0x0000000000000000000000004adc67696ba383f43dd60a9e78f2c97fbbfc7cb100000000000000000000000094bfc0574ff48e92ce43d495376c477b1d0eeec00000000000000000000000000000000000000000000000000000000000000708",
          "blockHash": "0x0000000000000000000000000000000000000000000000000000000000000000",
          "blockNumber": "0x23ff43a",
          "blockTimestamp": "0x69934754",
          "transactionHash": "0x44a16f7bd1971d8f5e93c80836bdbda4af46c157fd673313456fca9ce4e61322",
          "transactionIndex": "0x5",
          "logIndex": "0x5",
          "removed": false
        }
      ],
      "logsBloom": "0x00000000000000000000000000004000000000000000000000000000000000000000000000000000000000000000000000000000000000000020000000000000000000000000000040000000000000000000000000000000000100000000000000000000000000000000000000000000000010000000000000000000000000000000000000000000000000000000000000000000000000000000000000000000000000000000000000000000000000000000000000100000000000000000000000000000000004000000000000000400000000200000000000000000000000000000000000000000000000000000000000000000000000000000000000000000",
      "type": "0x2",
      "transactionHash": "0x44a16f7bd1971d8f5e93c80836bdbda4af46c157fd673313456fca9ce4e61322",
      "transactionIndex": "0x5",
      "blockHash": "0x0000000000000000000000000000000000000000000000000000000000000000",
      "blockNumber": "0x23ff43a",
      "gasUsed": "0x944e",
      "effectiveGasPrice": "0x2dc6c0",
      "blobGasUsed": "0x4696",
      "from": "0x6e0056fe681e087160bb40db0ae3419ee6c2ece4",
      "to": "0xd8f530eb3b624c6d4e89d504e48f8b0d00bf0a97",
      "contractAddress": null,
      "daFootprintGasScalar": "0x8b",
      "l1BaseFeeScalar": "0x44d",
      "l1BlobBaseFee": "0xca8023b",
      "l1BlobBaseFeeScalar": "0xa118b",
      "l1Fee": "0x4e141bb8c",
      "l1GasPrice": "0xeb167787",
      "l1GasUsed": "0x829"
    }
  ],
  "libraries": [],
  "pending": [],
  "returns": {},
  "timestamp": 1771259730380,
  "chain": 84532,
  "commit": "d85a8e8"
}