{
  "transactions": [
    {
      "hash": "0xd252029d0b95dbbfa078b876e4cc1b5579effbd5b4bea36355a810fc2bbe4057",
      "transactionType": "CALL",
      "contractName": "OracleRouter",
      "contractAddress": "0xd8f530eb3b624c6d4e89d504e48f8b0d00bf0a97",
      "function": "setOracleConfig(address,(address,address,uint32,uint96,bool))",
      "arguments": [
        "0x4200000000000000000000000000000000000006",
        "(0x4aDC67696bA383F43DD60A9e78F2C97Fbbfc7cb1, 0x0000000000000000000000000000000000000000, 0, 345600, false)"
      ],
      "transaction": {
        "from": "0x6e0056fe681e087160bb40db0ae3419ee6c2ece4",
        "to": "0xd8f530eb3b624c6d4e89d504e48f8b0d00bf0a97",
        "gas": "0xcd1b",
        "value": "0x0",
        "input": "0xa058901000000000000000000000000042000000000000000000000000000000000000060000000000000000000000004adc67696ba383f43dd60a9e78f2c97fbbfc7cb10000000000000000000000000000000000000000000000000000000000000000000000000000000000000000000000000000000000000000000000000000000000000000000000000000000000000000000000000000000000000000000546000000000000000000000000000000000000000000000000000000000000000000",
        "nonce": "0x9c",
        "chainId": "0x14a34"
      },
      "additionalContracts": [],
      "isFixedGasLimit": false
    }
  ],
  "receipts": [
    {
      "status": "0x1",
      "cumulativeGasUsed": "0x21ebb7",
      "logs": [
        {
          "address": "0xd8f530eb3b624c6d4e89d504e48f8b0d00bf0a97",
          "topics": [
            "0x71ff074140297c67e7be7f13c16ad56c7b665a5bba5315cd50f21b96c0c7e667",
            "0x0000000000000000000000004200000000000000000000000000000000000006"
          ],
          "data": "0x0000000000000000000000004adc67696ba383f43dd60a9e78f2c97fbbfc7cb100000000000000000000000000000000000000000000000000000000000000000000000000000000000000000000000000000000000000000000000000000000",
          "blockHash": "0x0000000000000000000000000000000000000000000000000000000000000000",
          "blockNumber": "0x2400dda",
          "blockTimestamp": "0x69937a94",
          "transactionHash": "0xd252029d0b95dbbfa078b876e4cc1b5579effbd5b4bea36355a810fc2bbe4057",
          "transactionIndex": "0x9",
          "logIndex": "0x6d",
          "removed": false
        }
      ],
      "logsBloom": "0x00000000000000000000000000004000000000000000000000000000000000000000000000000000000000000000000000000000000000000020000000000000000000000000000040000000000000000000000000000000000100000000000000000000000000000000000000000000000010000000000000000000000000000000000000000000000000000000000000000000000000000000000000000000000000000000000000000000000000000000000000100000000000000000000000000000000004000000000000000400000000200000000000000000000000000000000000000000000000000000000000000000000000000000000000000000",
      "type": "0x2",
      "transactionHash": "0xd252029d0b95dbbfa078b876e4cc1b5579effbd5b4bea36355a810fc2bbe4057",
      "transactionIndex": "0x9",
      "blockHash": "0x0000000000000000000000000000000000000000000000000000000000000000",
      "blockNumber": "0x2400dda",
      "gasUsed": "0x947f",
      "effectiveGasPrice": "0x2dc6c0",
      "blobGasUsed": "0x364c",
      "from": "0x6e0056fe681e087160bb40db0ae3419ee6c2ece4",
      "to": "0xd8f530eb3b624c6d4e89d504e48f8b0d00bf0a97",
      "contractAddress": null,
      "daFootprintGasScalar": "0x8b",
      "l1BaseFeeScalar": "0x44d",
      "l1BlobBaseFee": "0xd967c76",
      "l1BlobBaseFeeScalar": "0xa118b",
      "l1Fee": "0x509dad743",
      "l1GasPrice": "0xdbead4a0",
      "l1GasUsed": "0x647"
    }
  ],
  "libraries": [],
  "pending": [],
  "returns": {},
  "timestamp": 1771272851726,
  "chain": 84532,
  "commit": "04b0735"
}