{
  "transactions": [
    {
      "hash": "0xbcb657fe652e151b03d6e3bb96c184ac486a77065171ba2331fca201c8ce48eb",
      "transactionType": "CALL",
      "contractName": "OracleRouter",
      "contractAddress": "0x2d3083b20fca2341e28283ac47f9e585a5f0c741",
      "function": "setOracleConfig(address,(address,address,uint32,uint96,bool))",
      "arguments": [
        "0x036CbD53842c5426634e7929541eC2318f3dCF7e",
        "(0xd30e2101a97dcbAeBCBC04F14C3f624E67A35165, 0x0000000000000000000000000000000000000000, 0, 86400, false)"
      ],
      "transaction": {
        "from": "0x6e0056fe681e087160bb40db0ae3419ee6c2ece4",
        "to": "0x2d3083b20fca2341e28283ac47f9e585a5f0c741",
        "gas": "0xda79",
        "value": "0x0",
        "input": "0xa0589010000000000000000000000000036cbd53842c5426634e7929541ec2318f3dcf7e000000000000000000000000d30e2101a97dcbaebcbc04f14c3f624e67a351650000000000000000000000000000000000000000000000000000000000000000000000000000000000000000000000000000000000000000000000000000000000000000000000000000000000000000000000000000000000000000000151800000000000000000000000000000000000000000000000000000000000000000",
        "nonce": "0x47",
        "chainId": "0x14a34"
      },
      "additionalContracts": [],
      "isFixedGasLimit": false
    }
  ],
  "receipts": [
    {
      "status": "0x1",
      "cumulativeGasUsed": "0x4bd68",
      "logs": [
        {
          "address": "0x2d3083b20fca2341e28283ac47f9e585a5f0c741",
          "topics": [
            "0x71ff074140297c67e7be7f13c16ad56c7b665a5bba5315cd50f21b96c0c7e667",
            "0x000000000000000000000000036cbd53842c5426634e7929541ec2318f3dcf7e"
          ],
          "data": "0x000000000000000000000000d30e2101a97dcbaebcbc04f14c3f624e67a3516500000000000000000000000000000000000000000000000000000000000000000000000000000000000000000000000000000000000000000000000000000000",
          "blockHash": "0x0000000000000000000000000000000000000000000000000000000000000000",
          "blockNumber": "0x23f0e91",
          "blockTimestamp": "0x69917c02",
          "transactionHash": "0xbcb657fe652e151b03d6e3bb96c184ac486a77065171ba2331fca201c8ce48eb",
          "transactionIndex": "0x8",
          "logIndex": "0x1",
          "removed": false
        }
      ],
      "logsBloom": "0x00000000000000000000000000000000000000000000000000000000000000000000000000000000000000000000000000000000000000000000000000000000000000000000000040000000000004000000000000000000000100000000000000000000000000000000000000000000000000000000000000000000000000000000000040000000000000000000000000000000000000000000000000000000000000000000000000000000000000000000000000100000900000000004000000000000000000000000000000000000000000000000000000000000000000000000000000000000000000000040000000000000000000000000000000000000",
      "type": "0x2",
      "transactionHash": "0xbcb657fe652e151b03d6e3bb96c184ac486a77065171ba2331fca201c8ce48eb",
      "transactionIndex": "0x8",
      "blockHash": "0x0000000000000000000000000000000000000000000000000000000000000000",
      "blockNumber": "0x23f0e91",
      "gasUsed": "0x9563",
      "effectiveGasPrice": "0x2dc6c0",
      "blobGasUsed": "0x3bba",
      "from": "0x6e0056fe681e087160bb40db0ae3419ee6c2ece4",
      "to": "0x2d3083b20fca2341e28283ac47f9e585a5f0c741",
      "contractAddress": null,
      "daFootprintGasScalar": "0x8b",
      "l1BaseFeeScalar": "0x44d",
      "l1BlobBaseFee": "0xc908571",
      "l1BlobBaseFeeScalar": "0xa118b",
      "l1Fee": "0x527b13bca",
      "l1GasPrice": "0x116821d13",
      "l1GasUsed": "0x6e7"
    }
  ],
  "libraries": [],
  "pending": [],
  "returns": {},
  "timestamp": 1771142144981,
  "chain": 84532,
  "commit": "c746acf"
}