{
  "transactions": [
    {
      "hash": "0x6ce2c72bd7364d02808233eb38f816e58b8afc48acdde68cf72751c376537279",
      "transactionType": "CALL",
      "contractName": "OracleRouter",
      "contractAddress": "0xd8f530eb3b624c6d4e89d504e48f8b0d00bf0a97",
      "function": "setOracleConfig(address,(address,address,uint32,uint96,bool))",
      "arguments": [
        "0x036CbD53842c5426634e7929541eC2318f3dCF7e",
        "(0xd30e2101a97dcbAeBCBC04F14C3f624E67A35165, 0x0000000000000000000000000000000000000000, 0, 86400, false)"
      ],
      "transaction": {
        "from": "0x6e0056fe681e087160bb40db0ae3419ee6c2ece4",
        "to": "0xd8f530eb3b624c6d4e89d504e48f8b0d00bf0a97",
        "gas": "0xca7a",
        "value": "0x0",
        "input": "0xa0589010000000000000000000000000036cbd53842c5426634e7929541ec2318f3dcf7e000000000000000000000000d30e2101a97dcbaebcbc04f14c3f624e67a351650000000000000000000000000000000000000000000000000000000000000000000000000000000000000000000000000000000000000000000000000000000000000000000000000000000000000000000000000000000000000000000151800000000000000000000000000000000000000000000000000000000000000000",
        "nonce": "0x87",
        "chainId": "0x14a34"
      },
      "additionalContracts": [],
      "isFixedGasLimit": false
    }
  ],
  "receipts": [
    {
      "status": "0x1",
      "cumulativeGasUsed": "0x5c0f6",
      "logs": [
        {
          "address": "0xd8f530eb3b624c6d4e89d504e48f8b0d00bf0a97",
          "topics": [
            "0x71ff074140297c67e7be7f13c16ad56c7b665a5bba5315cd50f21b96c0c7e667",
            "0x000000000000000000000000036cbd53842c5426634e7929541ec2318f3dcf7e"
          ],
          "data": "0x000000000000000000000000d30e2101a97dcbaebcbc04f14c3f624e67a3516500000000000000000000000000000000000000000000000000000000000000000000000000000000000000000000000000000000000000000000000000000000",
          "blockHash": "0x0000000000000000000000000000000000000000000000000000000000000000",
          "blockNumber": "0x23ff1b1",
          "blockTimestamp": "0x69934242",
          "transactionHash": "0x6ce2c72bd7364d02808233eb38f816e58b8afc48acdde68cf72751c376537279",
          "transactionIndex": "0x5",
          "logIndex": "0xa",
          "removed": false
        }
      ],
      "logsBloom": "0x00000000000000000000000000004000000000000000000000000000000000000000000000000000000000000000000000000000000000000000000000000000000000000000000040000000000000000000000000000000000100000000000000000000000000000000000000000000000000000000000000000000000000000000000040000000000000000000000000000000000000000000000000000000000000000000000000000000000000000000000000100000100000000000000000000000000000000000000000000400000000200000000000000000000000000000000000000000000000000040000000000000000000000000000000000000",
      "type": "0x2",
      "transactionHash": "0x6ce2c72bd7364d02808233eb38f816e58b8afc48acdde68cf72751c376537279",
      "transactionIndex": "0x5",
      "blockHash": "0x0000000000000000000000000000000000000000000000000000000000000000",
      "blockNumber": "0x23ff1b1",
      "gasUsed": "0x8a73",
      "effectiveGasPrice": "0x2dc6c0",
      "blobGasUsed": "0x3c45",
      "from": "0x6e0056fe681e087160bb40db0ae3419ee6c2ece4",
      "to": "0xd8f530eb3b624c6d4e89d504e48f8b0d00bf0a97",
      "contractAddress": null,
      "daFootprintGasScalar": "0x8b",
      "l1BaseFeeScalar": "0x44d",
      "l1BlobBaseFee": "0xc19d9f6",
      "l1BlobBaseFeeScalar": "0xa118b",
      "l1Fee": "0x4bea65aff",
      "l1GasPrice": "0xec3e280d",
      "l1GasUsed": "0x6f5"
    }
  ],
  "libraries": [],
  "pending": [],
  "returns": {},
  "timestamp": 1771258432433,
  "chain": 84532,
  "commit": "d85a8e8"
}