{
  "transactions": [
    {
      "hash": "0x0080c8aa0537d2d218faed23b92346d00ad3f04881045c093d632f441fbbb53e",
      "transactionType": "CALL",
      "contractName": null,
      "contractAddress": "0x036cbd53842c5426634e7929541ec2318f3dcf7e",
      "function": "approve(address,uint256)",
      "arguments": [
        "0x2C201C3FCdB6073d0f895D29bf8F8A93d2D67A0E",
        "10000000"
      ],
      "transaction": {
        "from": "0x6e0056fe681e087160bb40db0ae3419ee6c2ece4",
        "to": "0x036cbd53842c5426634e7929541ec2318f3dcf7e",
        "gas": "0xdb03",
        "value": "0x0",
        "input": "0x095ea7b30000000000000000000000002c201c3fcdb6073d0f895d29bf8f8a93d2d67a0e0000000000000000000000000000000000000000000000000000000000989680",
        "nonce": "0x8c",
        "chainId": "0x14a34"
      },
      "additionalContracts": [],
      "isFixedGasLimit": false
    },
    {
      "hash": "0x51dc9a21849bfbe27377f1f179f6e120ad568a3b7ea31e107102fba30271fa11",
      "transactionType": "CALL",
      "contractName": null,
      "contractAddress": "0x2c201c3fcdb6073d0f895d29bf8f8a93d2d67a0e",
      "function": "deposit(uint256)",
      "arguments": [
        "10000000"
      ],
      "transaction": {
        "from": "0x6e0056fe681e087160bb40db0ae3419ee6c2ece4",
        "to": "0x2c201c3fcdb6073d0f895d29bf8f8a93d2d67a0e",
        "gas": "0x47bd9",
        "value": "0x0",
        "input": "0xb6b55f250000000000000000000000000000000000000000000000000000000000989680",
        "nonce": "0x8d",
        "chainId": "0x14a34"
      },
      "additionalContracts": [],
      "isFixedGasLimit": false
    }
  ],
  "receipts": [
    {
      "status": "0x1",
      "cumulativeGasUsed": "0x3b6cf9",
      "logs": [
        {
          "address": "0x036cbd53842c5426634e7929541ec2318f3dcf7e",
          "topics": [
            "0x8c5be1e5ebec7d5bd14f71427d1e84f3dd0314c0f7b2291e5b200ac8c7c3b925",
            "0x0000000000000000000000006e0056fe681e087160bb40db0ae3419ee6c2ece4",
            "0x0000000000000000000000002c201c3fcdb6073d0f895d29bf8f8a93d2d67a0e"
          ],
          "data": "0x0000000000000000000000000000000000000000000000000000000000989680",
          "blockHash": "0x0000000000000000000000000000000000000000000000000000000000000000",
          "blockNumber": "0x23ff47f",
          "blockTimestamp": "0x699347de",
          "transactionHash": "0x0080c8aa0537d2d218faed23b92346d00ad3f04881045c093d632f441fbbb53e",
          "transactionIndex": "0x20",
          "logIndex": "0x90",
          "removed": false
        }
      ],
      "logsBloom": "0x00000000040000000000000000000000000000000000000000000000000000000000000000000000000000000000000000000000000000000000000000200000000000000000000000000000000000000000000000000000000000000000000800000000000000000000000000000000000000000000008000000000000000000000000000000000000000000000000000000000000000000400000000000000020000000000000000000000000000000000000000000000000000000000000000000000000000000000000000000000000000084000800000000000000000000010000000000000000000000020000080000000000000000000000000000000",
      "type": "0x2",
      "transactionHash": "0x0080c8aa0537d2d218faed23b92346d00ad3f04881045c093d632f441fbbb53e",
      "transactionIndex": "0x20",
      "blockHash": "0x0000000000000000000000000000000000000000000000000000000000000000",
      "blockNumber": "0x23ff47f",
      "gasUsed": "0x95c1",
      "effectiveGasPrice": "0x2dc6c0",
      "blobGasUsed": "0x364c",
      "from": "0x6e0056fe681e087160bb40db0ae3419ee6c2ece4",
      "to": "0x036cbd53842c5426634e7929541ec2318f3dcf7e",
      "contractAddress": null,
      "daFootprintGasScalar": "0x8b",
      "l1BaseFeeScalar": "0x44d",
      "l1BlobBaseFee": "0xd8994b6",
      "l1BlobBaseFeeScalar": "0xa118b",
      "l1Fee": "0x50b663a71",
      "l1GasPrice": "0xe2015c3d",
      "l1GasUsed": "0x640"
    },
    {
      "status": "0x1",
      "cumulativeGasUsed": "0x3e7dd4",
      "logs": [
        {
          "address": "0x036cbd53842c5426634e7929541ec2318f3dcf7e",
          "topics": [
            "0xddf252ad1be2c89b69c2b068fc378daa952ba7f163c4a11628f55a4df523b3ef",
            "0x0000000000000000000000006e0056fe681e087160bb40db0ae3419ee6c2ece4",
            "0x0000000000000000000000002c201c3fcdb6073d0f895d29bf8f8a93d2d67a0e"
          ],
          "data": "0x0000000000000000000000000000000000000000000000000000000000989680",
          "blockHash": "0x0000000000000000000000000000000000000000000000000000000000000000",
          "blockNumber": "0x23ff47f",
          "blockTimestamp": "0x699347de",
          "transactionHash": "0x51dc9a21849bfbe27377f1f179f6e120ad568a3b7ea31e107102fba30271fa11",
          "transactionIndex": "0x21",
          "logIndex": "0x91",
          "removed": false
        },
        {
          "address": "0x1f29083bb3c003170c6cd0ec53cb7958cbf43341",
          "topics": [
            "0xddf252ad1be2c89b69c2b068fc378daa952ba7f163c4a11628f55a4df523b3ef",
            "0x0000000000000000000000000000000000000000000000000000000000000000",
            "0x0000000000000000000000006e0056fe681e087160bb40db0ae3419ee6c2ece4"
          ],
          "data": "0x0000000000000000000000000000000000000000000000008ac7230489e80000",
          "blockHash": "0x0000000000000000000000000000000000000000000000000000000000000000",
          "blockNumber": "0x23ff47f",
          "blockTimestamp": "0x699347de",
          "transactionHash": "0x51dc9a21849bfbe27377f1f179f6e120ad568a3b7ea31e107102fba30271fa11",
          "transactionIndex": "0x21",
          "logIndex": "0x92",
          "removed": false
        },
        {
          "address": "0x2c201c3fcdb6073d0f895d29bf8f8a93d2d67a0e",
          "topics": [
            "0x90890809c654f11d6e72a28fa60149770a0d11ec6c92319d6ceb2bb0a4ea1a15",
            "0x0000000000000000000000006e0056fe681e087160bb40db0ae3419ee6c2ece4"
          ],
          "data": "0x00000000000000000000000000000000000000000000000000000000009896800000000000000000000000000000000000000000000000008ac7230489e80000",
          "blockHash": "0x0000000000000000000000000000000000000000000000000000000000000000",
          "blockNumber": "0x23ff47f",
          "blockTimestamp": "0x699347de",
          "transactionHash": "0x51dc9a21849bfbe27377f1f179f6e120ad568a3b7ea31e107102fba30271fa11",
          "transactionIndex": "0x21",
          "logIndex": "0x93",
          "removed": false
        }
      ],
      "logsBloom": "0x00000000040000000000000000000000000000000400000000000000000000000000000000000000000000000000000008000000000000000000000000000000000000000000000000000008000000000000000000000000000000000000000800000000020000000040000000000800000000000000008000000010000000200000000000000010000000000000000000000200000000000400000000000000000000000000000000000000000000000400000000000000000000000000000000000002000000000000000000000000000000084000800000000000000020000000000000000000000000000020000080000000400000000000000000000200",
      "type": "0x2",
      "transactionHash": "0x51dc9a21849bfbe27377f1f179f6e120ad568a3b7ea31e107102fba30271fa11",
      "transactionIndex": "0x21",
      "blockHash": "0x0000000000000000000000000000000000000000000000000000000000000000",
      "blockNumber": "0x23ff47f",
      "gasUsed": "0x310db",
      "effectiveGasPrice": "0x2dc6c0",
      "blobGasUsed": "0x364c",
      "from": "0x6e0056fe681e087160bb40db0ae3419ee6c2ece4",
      "to": "0x2c201c3fcdb6073d0f895d29bf8f8a93d2d67a0e",
      "contractAddress": null,
      "daFootprintGasScalar": "0x8b",
      "l1BaseFeeScalar": "0x44d",
      "l1BlobBaseFee": "0xd8994b6",
      "l1BlobBaseFeeScalar": "0xa118b",
      "l1Fee": "0x50b663a71",
      "l1GasPrice": "0xe2015c3d",
      "l1GasUsed": "0x640"
    }
  ],
  "libraries": [],
  "pending": [],
  "returns": {},
  "timestamp": 1771259869536,
  "chain": 84532,
  "commit": "d85a8e8"
}