{
  "transactions": [
    {
      "hash": "0xdf06faa43cf771b81a6d716d0047728118e38c9148b0e953d4b263d8ddf8901c",
      "transactionType": "CALL",
      "contractName": null,
      "contractAddress": "0x2c201c3fcdb6073d0f895d29bf8f8a93d2d67a0e",
      "function": "borrow(uint256)",
      "arguments": [
        "5000000"
      ],
      "transaction": {
        "from": "0x6e0056fe681e087160bb40db0ae3419ee6c2ece4",
        "to": "0x2c201c3fcdb6073d0f895d29bf8f8a93d2d67a0e",
        "gas": "0x3fda3",
        "value": "0x0",
        "input": "0xc5ebeaec00000000000000000000000000000000000000000000000000000000004c4b40",
        "nonce": "0x9e",
        "chainId": "0x14a34"
      },
      "additionalContracts": [],
      "isFixedGasLimit": false
    }
  ],
  "receipts": [
    {
      "status": "0x1",
      "cumulativeGasUsed": "0x752fb",
      "logs": [
        {
          "address": "0x036cbd53842c5426634e7929541ec2318f3dcf7e",
          "topics": [
            "0xddf252ad1be2c89b69c2b068fc378daa952ba7f163c4a11628f55a4df523b3ef",
            "0x0000000000000000000000002c201c3fcdb6073d0f895d29bf8f8a93d2d67a0e",
            "0x0000000000000000000000006e0056fe681e087160bb40db0ae3419ee6c2ece4"
          ],
          "data": "0x00000000000000000000000000000000000000000000000000000000004c4b40",
          "blockHash": "0xdfd1c5131c9334179d6b9a0957a5259f684893d3dbaa19e3e2bcfb31f97e1196",
          "blockNumber": "0x2400e9f",
          "blockTimestamp": "0x69937c1e",
          "transactionHash": "0xdf06faa43cf771b81a6d716d0047728118e38c9148b0e953d4b263d8ddf8901c",
          "transactionIndex": "0x4",
          "logIndex": "0x1",
          "removed": false
        },
        {
          "address": "0x2c201c3fcdb6073d0f895d29bf8f8a93d2d67a0e",
          "topics": [
            "0xe1979fe4c35e0cef342fef5668e2c8e7a7e9f5d5d1ca8fee0ac6c427fa4153af",
            "0x0000000000000000000000006e0056fe681e087160bb40db0ae3419ee6c2ece4"
          ],
          "data": "0x00000000000000000000000000000000000000000000000000000000004c4b400000000000000000000000000000000000000000000000004563918244f40000",
          "blockHash": "0xdfd1c5131c9334179d6b9a0957a5259f684893d3dbaa19e3e2bcfb31f97e1196",
          "blockNumber": "0x2400e9f",
          "blockTimestamp": "0x69937c1e",
          "transactionHash": "0xdf06faa43cf771b81a6d716d0047728118e38c9148b0e953d4b263d8ddf8901c",
          "transactionIndex": "0x4",
          "logIndex": "0x2",
          "removed": false
        }
      ],
      "logsBloom": "0x00000000040000000000000000000000000000000000000040000000000000000000000000000000000000000000000000000000000000000000000000000080000000000000000000000008000000000000000000000000000000000000000800000000000000000000000000000000000000000000008000000010000000000000000000000000000000000000000000000200000000000400000000000000000000000000000000000000000000000400000000000000000000000000000000000002000000000000000800000000000000084000800000000000000000000000000000000000000000000020000080000000000000000000000000000200",
      "type": "0x2",
      "transactionHash": "0xdf06faa43cf771b81a6d716d0047728118e38c9148b0e953d4b263d8ddf8901c",
      "transactionIndex": "0x4",
      "blockHash": "0xdfd1c5131c9334179d6b9a0957a5259f684893d3dbaa19e3e2bcfb31f97e1196",
      "blockNumber": "0x2400e9f",
      "gasUsed": "0x2e3a6",
      "effectiveGasPrice": "0x2dc6c0",
      "blobGasUsed": "0x364c",
      "from": "0x6e0056fe681e087160bb40db0ae3419ee6c2ece4",
      "to": "0x2c201c3fcdb6073d0f895d29bf8f8a93d2d67a0e",
      "contractAddress": null,
      "daFootprintGasScalar": "0x8b",
      "l1BaseFeeScalar": "0x44d",
      "l1BlobBaseFee": "0x11eb4e94",
      "l1BlobBaseFeeScalar": "0xa118b",
      "l1Fee": "0x69d1f11ff",
      "l1GasPrice": "0x121eb8d4e",
      "l1GasUsed": "0x640"
    }
  ],
  "libraries": [],
  "pending": [],
  "returns": {},
  "timestamp": 1771273246026,
  "chain": 84532,
  "commit": "04b0735"
}