{
  "transactions": [
    {
      "hash": "0x29e5c936f2b1a8b001bdbd2c8609640a9b94e31c44d099fbf52d69d324459cf4",
      "transactionType": "CALL",
      "contractName": null,
      "contractAddress": "0x036cbd53842c5426634e7929541ec2318f3dcf7e",
      "function": "approve(address,uint256)",
      "arguments": [
        "0x2a5b1e18aFBB63ba63B16EdC783814bDC728255A",
        "10000000"
      ],
      "transaction": {
        "from": "0x6e0056fe681e087160bb40db0ae3419ee6c2ece4",
        "to": "0x036cbd53842c5426634e7929541ec2318f3dcf7e",
        "gas": "0xdb03",
        "value": "0x0",
        "input": "0x095ea7b30000000000000000000000002a5b1e18afbb63ba63b16edc783814bdc728255a0000000000000000000000000000000000000000000000000000000000989680",
        "nonce": "0x19",
        "chainId": "0x14a34"
      },
      "additionalContracts": [],
      "isFixedGasLimit": false
    },
    {
      "hash": "0x122831488adfa318a9d5bc4e6b9ce54a146e60ce2d9845af9dd73cfabc46d7c2",
      "transactionType": "CALL",
      "contractName": null,
      "contractAddress": "0x2a5b1e18afbb63ba63b16edc783814bdc728255a",
      "function": "deposit(uint256)",
      "arguments": [
        "10000000"
      ],
      "transaction": {
        "from": "0x6e0056fe681e087160bb40db0ae3419ee6c2ece4",
        "to": "0x2a5b1e18afbb63ba63b16edc783814bdc728255a",
        "gas": "0x4303b",
        "value": "0x0",
        "input": "0xb6b55f250000000000000000000000000000000000000000000000000000000000989680",
        "nonce": "0x1a",
        "chainId": "0x14a34"
      },
      "additionalContracts": [],
      "isFixedGasLimit": false
    }
  ],
  "receipts": [
    {
      "status": "0x1",
      "cumulativeGasUsed": "0x4b60c8",
      "logs": [
        {
          "address": "0x036cbd53842c5426634e7929541ec2318f3dcf7e",
          "topics": [
            "0x8c5be1e5ebec7d5bd14f71427d1e84f3dd0314c0f7b2291e5b200ac8c7c3b925",
            "0x0000000000000000000000006e0056fe681e087160bb40db0ae3419ee6c2ece4",
            "0x0000000000000000000000002a5b1e18afbb63ba63b16edc783814bdc728255a"
          ],
          "data": "0x0000000000000000000000000000000000000000000000000000000000989680",
          "blockHash": "0x0000000000000000000000000000000000000000000000000000000000000000",
          "blockNumber": "0x23ddb0d",
          "blockTimestamp": "0x698f14fa",
          "transactionHash": "0x29e5c936f2b1a8b001bdbd2c8609640a9b94e31c44d099fbf52d69d324459cf4",
          "transactionIndex": "0xb",
          "logIndex": "0x7d",
          "removed": false
        }
      ],
      "logsBloom": "0x00000000040000000000000000000000000000000000000000000000000000000040000000000000000000000000000000000000000000000000000000200000000000000000000000000000000000000000000000000000000000000000000800000000000000000000000000000000000000000000008000000000000000000000000000000000000000000000000000000000000000000400000000000000020000000000000000000000000100000000000000000000000000000000000000000000000000000000000000000000000000004000000000000000000000000010000000000000000000000020000000000000000000000000002000000000",
      "type": "0x2",
      "transactionHash": "0x29e5c936f2b1a8b001bdbd2c8609640a9b94e31c44d099fbf52d69d324459cf4",
      "transactionIndex": "0xb",
      "blockHash": "0x0000000000000000000000000000000000000000000000000000000000000000",
      "blockNumber": "0x23ddb0d",
      "gasUsed": "0x95c1",
      "effectiveGasPrice": "0x2dc6c0",
      "blobGasUsed": "0x364c",
      "from": "0x6e0056fe681e087160bb40db0ae3419ee6c2ece4",
      "to": "0x036cbd53842c5426634e7929541ec2318f3dcf7e",
      "contractAddress": null,
      "daFootprintGasScalar": "0x8b",
      "l1BaseFeeScalar": "0x44d",
      "l1BlobBaseFee": "0x1587f779",
      "l1BlobBaseFeeScalar": "0xa118b",
      "l1Fee": "0x760d85b71",
      "l1GasPrice": "0x109bb2e9d",
      "l1GasUsed": "0x640"
    },
    {
      "status": "0x1",
      "cumulativeGasUsed": "0x50444d",
      "logs": [
        {
          "address": "0x036cbd53842c5426634e7929541ec2318f3dcf7e",
          "topics": [
            "0xddf252ad1be2c89b69c2b068fc378daa952ba7f163c4a11628f55a4df523b3ef",
            "0x0000000000000000000000006e0056fe681e087160bb40db0ae3419ee6c2ece4",
            "0x0000000000000000000000002a5b1e18afbb63ba63b16edc783814bdc728255a"
          ],
          "data": "0x0000000000000000000000000000000000000000000000000000000000989680",
          "blockHash": "0x283fa07b9e7fbadd329a6b38eda4371263014e70609deb8eafa93915f9194e1f",
          "blockNumber": "0x23ddb0d",
          "blockTimestamp": "0x698f14fa",
          "transactionHash": "0x122831488adfa318a9d5bc4e6b9ce54a146e60ce2d9845af9dd73cfabc46d7c2",
          "transactionIndex": "0xd",
          "logIndex": "0x81",
          "removed": false
        },
        {
          "address": "0xd2de0164e3c38df0181a16f32557322a3f5f8305",
          "topics": [
            "0xddf252ad1be2c89b69c2b068fc378daa952ba7f163c4a11628f55a4df523b3ef",
            "0x0000000000000000000000000000000000000000000000000000000000000000",
            "0x0000000000000000000000006e0056fe681e087160bb40db0ae3419ee6c2ece4"
          ],
          "data": "0x0000000000000000000000000000000000000000000000000000000000989680",
          "blockHash": "0x283fa07b9e7fbadd329a6b38eda4371263014e70609deb8eafa93915f9194e1f",
          "blockNumber": "0x23ddb0d",
          "blockTimestamp": "0x698f14fa",
          "transactionHash": "0x122831488adfa318a9d5bc4e6b9ce54a146e60ce2d9845af9dd73cfabc46d7c2",
          "transactionIndex": "0xd",
          "logIndex": "0x82",
          "removed": false
        },
        {
          "address": "0x2a5b1e18afbb63ba63b16edc783814bdc728255a",
          "topics": [
            "0x90890809c654f11d6e72a28fa60149770a0d11ec6c92319d6ceb2bb0a4ea1a15",
            "0x0000000000000000000000006e0056fe681e087160bb40db0ae3419ee6c2ece4"
          ],
          "data": "0x00000000000000000000000000000000000000000000000000000000009896800000000000000000000000000000000000000000000000000000000000989680",
          "blockHash": "0x283fa07b9e7fbadd329a6b38eda4371263014e70609deb8eafa93915f9194e1f",
          "blockNumber": "0x23ddb0d",
          "blockTimestamp": "0x698f14fa",
          "transactionHash": "0x122831488adfa318a9d5bc4e6b9ce54a146e60ce2d9845af9dd73cfabc46d7c2",
          "transactionIndex": "0xd",
          "logIndex": "0x83",
          "removed": false
        }
      ],
      "logsBloom": "0x00000000040000000000000000000000000000000400000000000000000000000040000000000000000000000000000008000001000008000000000000000000000000000000000000000008000000800000000000000000000000000000000800000000020000000000000000000800000000000000008000000010000000000000000000000000000000000000000000000000000000000400000000000000000000000000000000000200000100000000000000000000000000000000000000000002000000000000000000000000000000004000000000004000000020000000000000000000000000000020000000001000400000000000002000000000",
      "type": "0x2",
      "transactionHash": "0x122831488adfa318a9d5bc4e6b9ce54a146e60ce2d9845af9dd73cfabc46d7c2",
      "transactionIndex": "0xd",
      "blockHash": "0x283fa07b9e7fbadd329a6b38eda4371263014e70609deb8eafa93915f9194e1f",
      "blockNumber": "0x23ddb0d",
      "gasUsed": "0x30847",
      "effectiveGasPrice": "0x2dc6c0",
      "blobGasUsed": "0x364c",
      "from": "0x6e0056fe681e087160bb40db0ae3419ee6c2ece4",
      "to": "0x2a5b1e18afbb63ba63b16edc783814bdc728255a",
      "contractAddress": null,
      "daFootprintGasScalar": "0x8b",
      "l1BaseFeeScalar": "0x44d",
      "l1BlobBaseFee": "0x1587f779",
      "l1BlobBaseFeeScalar": "0xa118b",
      "l1Fee": "0x760d85b71",
      "l1GasPrice": "0x109bb2e9d",
      "l1GasUsed": "0x640"
    }
  ],
  "libraries": [],
  "pending": [],
  "returns": {},
  "timestamp": 1770984698955,
  "chain": 84532,
  "commit": "e88e112"
}