{
  "transactions": [
    {
      "hash": "0x977ded76d482c6a8c25cfa037426ce39e1833d64a5ac1a295bff333928a38599",
      "transactionType": "CALL",
      "contractName": "OracleRouter",
      "contractAddress": "0xd8f530eb3b624c6d4e89d504e48f8b0d00bf0a97",
      "function": "setOracleConfig(address,(address,address,uint32,uint96,bool))",
      "arguments": [
        "0x4200000000000000000000000000000000000006",
        "(0x4aDC67696bA383F43DD60A9e78F2C97Fbbfc7cb1, 0x0000000000000000000000000000000000000000, 0, 86400, false)"
      ],
      "transaction": {
        "from": "0x6e0056fe681e087160bb40db0ae3419ee6c2ece4",
        "to": "0xd8f530eb3b624c6d4e89d504e48f8b0d00bf0a97",
        "gas": "0xd93e",
        "value": "0x0",
        "input": "0xa058901000000000000000000000000042000000000000000000000000000000000000060000000000000000000000004adc67696ba383f43dd60a9e78f2c97fbbfc7cb10000000000000000000000000000000000000000000000000000000000000000000000000000000000000000000000000000000000000000000000000000000000000000000000000000000000000000000000000000000000000000000151800000000000000000000000000000000000000000000000000000000000000000",
        "nonce": "0x99",
        "chainId": "0x14a34"
      },
      "additionalContracts": [],
      "isFixedGasLimit": false
    }
  ],
  "receipts": [
    {
      "status": "0x1",
      "cumulativeGasUsed": "0x86fc8",
      "logs": [
        {
          "address": "0xd8f530eb3b624c6d4e89d504e48f8b0d00bf0a97",
          "topics": [
            "0x71ff074140297c67e7be7f13c16ad56c7b665a5bba5315cd50f21b96c0c7e667",
            "0x0000000000000000000000004200000000000000000000000000000000000006"
          ],
          "data": "0x0000000000000000000000004adc67696ba383f43dd60a9e78f2c97fbbfc7cb100000000000000000000000000000000000000000000000000000000000000000000000000000000000000000000000000000000000000000000000000000000",
          "blockHash": "0xc9c6e0dbe4171a5f8f0675a8b4d9b5816879189b32644754182bb2c13dc02e03",
          "blockNumber": "0x2400b5d",
          "blockTimestamp": "0x6993759a",
          "transactionHash": "0x977ded76d482c6a8c25cfa037426ce39e1833d64a5ac1a295bff333928a38599",
          "transactionIndex": "0x4",
          "logIndex": "0xc",
          "removed": false
        }
      ],
      "logsBloom": "0x00000000000000000000000000004000000000000000000000000000000000000000000000000000000000000000000000000000000000000020000000000000000000000000000040000000000000000000000000000000000100000000000000000000000000000000000000000000000010000000000000000000000000000000000000000000000000000000000000000000000000000000000000000000000000000000000000000000000000000000000000100000000000000000000000000000000004000000000000000400000000200000000000000000000000000000000000000000000000000000000000000000000000000000000000000000",
      "type": "0x2",
      "transactionHash": "0x977ded76d482c6a8c25cfa037426ce39e1833d64a5ac1a295bff333928a38599",
      "transactionIndex": "0x4",
      "blockHash": "0xc9c6e0dbe4171a5f8f0675a8b4d9b5816879189b32644754182bb2c13dc02e03",
      "blockNumber": "0x2400b5d",
      "gasUsed": "0x948b",
      "effectiveGasPrice": "0x2dc6c0",
      "blobGasUsed": "0x36d7",
      "from": "0x6e0056fe681e087160bb40db0ae3419ee6c2ece4",
      "to": "0xd8f530eb3b624c6d4e89d504e48f8b0d00bf0a97",
      "contractAddress": null,
      "daFootprintGasScalar": "0x8b",
      "l1BaseFeeScalar": "0x44d",
      "l1BlobBaseFee": "0x10d0cca4",
      "l1BlobBaseFeeScalar": "0xa118b",
      "l1Fee": "0x66438b737",
      "l1GasPrice": "0x11f1ae5e8",
      "l1GasUsed": "0x654"
    }
  ],
  "libraries": [],
  "pending": [],
  "returns": {},
  "timestamp": 1771271579295,
  "chain": 84532,
  "commit": "04b0735"
}